{
  "_format": "hh-sol-artifact-1",
  "contractName": "Owner",
  "sourceName": "contracts/2_Owner.sol",
  "abi": [
    {
      "inputs": [],
      "stateMutability": "nonpayable",
      "type": "constructor"
    },
    {
      "anonymous": false,
      "inputs": [
        {
          "indexed": true,
          "internalType": "address",
          "name": "oldOwner",
          "type": "address"
        },
        {
          "indexed": true,
          "internalType": "address",
          "name": "newOwner",
          "type": "address"
        }
      ],
      "name": "OwnerSet",
      "type": "event"
    },
    {
      "inputs": [
        {
          "internalType": "address",
          "name": "newOwner",
          "type": "address"
        }
      ],
      "name": "changeOwner",
      "outputs": [],
      "stateMutability": "nonpayable",
      "type": "function"
    },
    {
      "inputs": [],
      "name": "getOwner",
      "outputs": [
        {
          "internalType": "address",
          "name": "",
          "type": "address"
        }
      ],
      "stateMutability": "view",
      "type": "function"
    }
  ],
  "bytecode": "0x608060405234801561001057600080fd5b5060408051808201909152601b81527f4f776e657220636f6e7472616374206465706c6f7965642062793a0000000000602082015261004f9033610093565b600080546001600160a01b0319163390811782556040519091907f342827c97908e5e2f71151c08502a66d44b6f758e3ac2f1de95f02eb95f0a735908290a3610177565b6100dc82826040516024016100a9929190610117565b60408051601f198184030181529190526020810180516001600160e01b0390811663319af33360e01b179091526100e016565b5050565b6100f3816100f660201b6101861760201c565b50565b60006a636f6e736f6c652e6c6f679050600080835160208501845afa505050565b604081526000835180604084015260005b818110156101455760208187018101516060868401015201610128565b50600060608285018101919091526001600160a01b03949094166020840152601f01601f191690910190910192915050565b61022d806101866000396000f3fe608060405234801561001057600080fd5b50600436106100365760003560e01c8063893d20e81461003b578063a6f9dae11461005a575b600080fd5b600054604080516001600160a01b039092168252519081900360200190f35b61006d6100683660046101b1565b61006f565b005b6000546001600160a01b031633146100c45760405162461bcd60e51b815260206004820152601360248201527221b0b63632b91034b9903737ba1037bbb732b960691b60448201526064015b60405180910390fd5b6001600160a01b03811661012b5760405162461bcd60e51b815260206004820152602860248201527f4e6577206f776e65722073686f756c64206e6f7420626520746865207a65726f604482015267206164647265737360c01b60648201526084016100bb565b600080546040516001600160a01b03808516939216917f342827c97908e5e2f71151c08502a66d44b6f758e3ac2f1de95f02eb95f0a73591a3600080546001600160a01b0319166001600160a01b0392909216919091179055565b60006a636f6e736f6c652e6c6f679050600080835160208501845afa505050565b6101af6101e1565b565b6000602082840312156101c357600080fd5b81356001600160a01b03811681146101da57600080fd5b9392505050565b634e487b7160e01b600052605160045260246000fdfea26469706673582212207e852f33e0bfcbd2d092a048e339ac557dc88160f84c90b25efd3a6fb95535ce64736f6c63430008130033",
  "linkReferences": {},
  "deployedLinkReferences": {}
}