{
  "_format": "hh-sol-artifact-1",
  "contractName": "EventChain",
  "sourceName": "contracts/EventChain.sol",
  "abi": [
    {
      "anonymous": false,
      "inputs": [
        {
          "indexed": true,
          "internalType": "uint256",
          "name": "index",
          "type": "uint256"
        },
        {
          "indexed": true,
          "internalType": "address",
          "name": "actor",
          "type": "address"
        },
        {
          "indexed": false,
          "internalType": "string",
          "name": "eventType",
          "type": "string"
        },
        {
          "indexed": false,
          "internalType": "string",
          "name": "metadataHash",
          "type": "string"
        },
        {
          "indexed": false,
          "internalType": "uint256",
          "name": "timestamp",
          "type": "uint256"
        },
        {
          "indexed": true,
          "internalType": "bytes32",
          "name": "eventHash",
          "type": "bytes32"
        }
      ],
      "name": "EventAdded",
      "type": "event"
    },
    {
      "inputs": [
        {
          "internalType": "string",
          "name": "eventType",
          "type": "string"
        },
        {
          "internalType": "string",
          "name": "metadataHash",
          "type": "string"
        }
      ],
      "name": "addEvent",
      "outputs": [],
      "stateMutability": "nonpayable",
      "type": "function"
    },
    {
      "inputs": [],
      "name": "getAllEvents",
      "outputs": [
        {
          "internalType": "address[]",
          "name": "actors",
          "type": "address[]"
        },
        {
          "internalType": "string[]",
          "name": "eventTypes",
          "type": "string[]"
        },
        {
          "internalType": "string[]",
          "name": "metadataHashes",
          "type": "string[]"
        },
        {
          "internalType": "uint256[]",
          "name": "timestamps",
          "type": "uint256[]"
        }
      ],
      "stateMutability": "view",
      "type": "function"
    },
    {
      "inputs": [
        {
          "internalType": "uint256",
          "name": "index",
          "type": "uint256"
        }
      ],
      "name": "getEvent",
      "outputs": [
        {
          "internalType": "address",
          "name": "actor",
          "type": "address"
        },
        {
          "internalType": "string",
          "name": "eventType",
          "type": "string"
        },
        {
          "internalType": "string",
          "name": "metadataHash",
          "type": "string"
        },
        {
          "internalType": "uint256",
          "name": "timestamp",
          "type": "uint256"
        }
      ],
      "stateMutability": "view",
      "type": "function"
    },
    {
      "inputs": [],
      "name": "getEventCount",
      "outputs": [
        {
          "internalType": "uint256",
          "name": "",
          "type": "uint256"
        }
      ],
      "stateMutability": "view",
      "type": "function"
    },
    {
      "inputs": [
        {
          "internalType": "string",
          "name": "metadataHash",
          "type": "string"
        }
      ],
      "name": "verifyHash",
      "outputs": [
        {
          "internalType": "bool",
          "name": "exists",
          "type": "bool"
        },
        {
          "internalType": "uint256",
          "name": "index",
          "type": "uint256"
        }
      ],
      "stateMutability": "view",
      "type": "function"
    }
  ],
  "bytecode": "0x608060405234801561001057600080fd5b50610eeb806100206000396000f3fe608060405234801561001057600080fd5b50600436106100575760003560e01c80631b26be1d1461005c5780636d1884e01461007157806386fb28131461009d578063c27a500d146100c7578063d9e48f5c146100df575b600080fd5b61006f61006a366004610a2a565b6100f0565b005b61008461007f366004610a8e565b6103b0565b6040516100949493929190610af7565b60405180910390f35b6100b06100ab366004610b3f565b61059f565b604080519215158352602083019190915201610094565b6100cf6105f4565b6040516100949493929190610bd4565b600054604051908152602001610094565b60008151116101465760405162461bcd60e51b815260206004820152601d60248201527f4d6574616461746120686173682063616e6e6f7420626520656d70747900000060448201526064015b60405180910390fd5b60008251116101975760405162461bcd60e51b815260206004820152601a60248201527f4576656e7420747970652063616e6e6f7420626520656d707479000000000000604482015260640161013d565b6002816040516101a79190610c82565b9081526040519081900360200190205460ff16156102135760405162461bcd60e51b815260206004820152602360248201527f4576656e7420776974682074686973206861736820616c72656164792065786960448201526273747360e81b606482015260840161013d565b60408051608081018252338152602081018481529181018390524260608201526000805460018101825590805281517f290decd9548b62a8d60345a988386fc84ba6bc95484008f6362f93160ef3e5636004830290810180546001600160a01b0319166001600160a01b0390931692909217825593519293919284927f290decd9548b62a8d60345a988386fc84ba6bc95484008f6362f93160ef3e56401906102bc9082610d27565b50604082015160028201906102d19082610d27565b50606082015181600301555050806001846040516102ef9190610c82565b90815260200160405180910390208190555060016002846040516103139190610c82565b90815260405160209181900382018120805460ff19169315159390931790925560009161034a913391889188914291889101610de7565b60405160208183030381529060405280519060200120905080336001600160a01b0316837fc849600841e788043f35cb19289ffa0a69ed5608353120fd47c382d2c9a33c118888426040516103a193929190610e42565b60405180910390a45050505050565b600060608060008080549050851061040a5760405162461bcd60e51b815260206004820152601960248201527f4576656e7420696e646578206f7574206f6620626f756e647300000000000000604482015260640161013d565b600080868154811061041e5761041e610e78565b6000918252602091829020604080516080810190915260049092020180546001600160a01b03168252600181018054929391929184019161045e90610c9e565b80601f016020809104026020016040519081016040528092919081815260200182805461048a90610c9e565b80156104d75780601f106104ac576101008083540402835291602001916104d7565b820191906000526020600020905b8154815290600101906020018083116104ba57829003601f168201915b505050505081526020016002820180546104f090610c9e565b80601f016020809104026020016040519081016040528092919081815260200182805461051c90610c9e565b80156105695780601f1061053e57610100808354040283529160200191610569565b820191906000526020600020905b81548152906001019060200180831161054c57829003601f168201915b50505091835250506003919091015460209182015281519082015160408301516060909301519199909850919650945092505050565b6000806002836040516105b29190610c82565b9081526040519081900360200190205460ff16915081156105ef576001836040516105dd9190610c82565b90815260200160405180910390205490505b915091565b6000546060908190819081908067ffffffffffffffff81111561061957610619610987565b604051908082528060200260200182016040528015610642578160200160208202803683370190505b5094508067ffffffffffffffff81111561065e5761065e610987565b60405190808252806020026020018201604052801561069157816020015b606081526020019060019003908161067c5790505b5093508067ffffffffffffffff8111156106ad576106ad610987565b6040519080825280602002602001820160405280156106e057816020015b60608152602001906001900390816106cb5790505b5092508067ffffffffffffffff8111156106fc576106fc610987565b604051908082528060200260200182016040528015610725578160200160208202803683370190505b50915060005b8181101561097f576000818154811061074657610746610e78565b600091825260209091206004909102015486516001600160a01b039091169087908390811061077757610777610e78565b60200260200101906001600160a01b031690816001600160a01b031681525050600081815481106107aa576107aa610e78565b906000526020600020906004020160010180546107c690610c9e565b80601f01602080910402602001604051908101604052809291908181526020018280546107f290610c9e565b801561083f5780601f106108145761010080835404028352916020019161083f565b820191906000526020600020905b81548152906001019060200180831161082257829003601f168201915b505050505085828151811061085657610856610e78565b60200260200101819052506000818154811061087457610874610e78565b9060005260206000209060040201600201805461089090610c9e565b80601f01602080910402602001604051908101604052809291908181526020018280546108bc90610c9e565b80156109095780601f106108de57610100808354040283529160200191610909565b820191906000526020600020905b8154815290600101906020018083116108ec57829003601f168201915b505050505084828151811061092057610920610e78565b60200260200101819052506000818154811061093e5761093e610e78565b90600052602060002090600402016003015483828151811061096257610962610e78565b60209081029190910101528061097781610e8e565b91505061072b565b505090919293565b634e487b7160e01b600052604160045260246000fd5b600082601f8301126109ae57600080fd5b813567ffffffffffffffff808211156109c9576109c9610987565b604051601f8301601f19908116603f011681019082821181831017156109f1576109f1610987565b81604052838152866020858801011115610a0a57600080fd5b836020870160208301376000602085830101528094505050505092915050565b60008060408385031215610a3d57600080fd5b823567ffffffffffffffff80821115610a5557600080fd5b610a618683870161099d565b93506020850135915080821115610a7757600080fd5b50610a848582860161099d565b9150509250929050565b600060208284031215610aa057600080fd5b5035919050565b60005b83811015610ac2578181015183820152602001610aaa565b50506000910152565b60008151808452610ae3816020860160208601610aa7565b601f01601f19169290920160200192915050565b6001600160a01b0385168152608060208201819052600090610b1b90830186610acb565b8281036040840152610b2d8186610acb565b91505082606083015295945050505050565b600060208284031215610b5157600080fd5b813567ffffffffffffffff811115610b6857600080fd5b610b748482850161099d565b949350505050565b600082825180855260208086019550808260051b84010181860160005b84811015610bc757601f19868403018952610bb5838351610acb565b98840198925090830190600101610b99565b5090979650505050505050565b6080808252855190820181905260009060209060a0840190828901845b82811015610c165781516001600160a01b031684529284019290840190600101610bf1565b50505083810382850152610c2a8188610b7c565b90508381036040850152610c3e8187610b7c565b8481036060860152855180825283870192509083019060005b81811015610c7357835183529284019291840191600101610c57565b50909998505050505050505050565b60008251610c94818460208701610aa7565b9190910192915050565b600181811c90821680610cb257607f821691505b602082108103610cd257634e487b7160e01b600052602260045260246000fd5b50919050565b601f821115610d2257600081815260208120601f850160051c81016020861015610cff5750805b601f850160051c820191505b81811015610d1e57828155600101610d0b565b5050505b505050565b815167ffffffffffffffff811115610d4157610d41610987565b610d5581610d4f8454610c9e565b84610cd8565b602080601f831160018114610d8a5760008415610d725750858301515b600019600386901b1c1916600185901b178555610d1e565b600085815260208120601f198616915b82811015610db957888601518255948401946001909101908401610d9a565b5085821015610dd75787850151600019600388901b60f8161c191681555b5050505050600190811b01905550565b6bffffffffffffffffffffffff198660601b16815260008551610e11816014850160208a01610aa7565b855190830190610e28816014840160208a01610aa7565b016014810194909452505060348201526054019392505050565b606081526000610e556060830186610acb565b8281036020840152610e678186610acb565b915050826040830152949350505050565b634e487b7160e01b600052603260045260246000fd5b600060018201610eae57634e487b7160e01b600052601160045260246000fd5b506001019056fea264697066735822122046e3885d5d337adc3ac7cf14485e29823df2cec35cf7c2eedbb26f1c61ddd8ef64736f6c63430008130033",
  "linkReferences": {},
  "deployedLinkReferences": {}
}