{
  "_format": "hh-sol-artifact-1",
  "contractName": "SeedChain",
  "sourceName": "contracts/SeedChain.sol",
  "abi": [
    {
      "inputs": [],
      "stateMutability": "nonpayable",
      "type": "constructor"
    },
    {
      "anonymous": false,
      "inputs": [
        {
          "indexed": true,
          "internalType": "uint256",
          "name": "batchId",
          "type": "uint256"
        },
        {
          "indexed": true,
          "internalType": "address",
          "name": "owner",
          "type": "address"
        },
        {
          "indexed": false,
          "internalType": "string",
          "name": "cropType",
          "type": "string"
        },
        {
          "indexed": false,
          "internalType": "string",
          "name": "seedVariety",
          "type": "string"
        },
        {
          "indexed": false,
          "internalType": "uint256",
          "name": "quantity",
          "type": "uint256"
        },
        {
          "indexed": false,
          "internalType": "uint256",
          "name": "expiryDate",
          "type": "uint256"
        },
        {
          "indexed": false,
          "internalType": "string",
          "name": "ipfsHash",
          "type": "string"
        },
        {
          "indexed": false,
          "internalType": "uint256",
          "name": "timestamp",
          "type": "uint256"
        }
      ],
      "name": "BatchCreated",
      "type": "event"
    },
    {
      "anonymous": false,
      "inputs": [
        {
          "indexed": true,
          "internalType": "uint256",
          "name": "parentBatchId",
          "type": "uint256"
        },
        {
          "indexed": true,
          "internalType": "uint256",
          "name": "childBatchId",
          "type": "uint256"
        },
        {
          "indexed": false,
          "internalType": "uint256",
          "name": "childQuantity",
          "type": "uint256"
        },
        {
          "indexed": true,
          "internalType": "address",
          "name": "owner",
          "type": "address"
        },
        {
          "indexed": false,
          "internalType": "uint256",
          "name": "timestamp",
          "type": "uint256"
        }
      ],
      "name": "BatchSplit",
      "type": "event"
    },
    {
      "anonymous": false,
      "inputs": [
        {
          "indexed": true,
          "internalType": "uint256",
          "name": "batchId",
          "type": "uint256"
        },
        {
          "indexed": true,
          "internalType": "address",
          "name": "fromOwner",
          "type": "address"
        },
        {
          "indexed": true,
          "internalType": "address",
          "name": "toOwner",
          "type": "address"
        },
        {
          "indexed": false,
          "internalType": "uint256",
          "name": "timestamp",
          "type": "uint256"
        }
      ],
      "name": "BatchTransferred",
      "type": "event"
    },
    {
      "anonymous": false,
      "inputs": [
        {
          "indexed": true,
          "internalType": "uint256",
          "name": "certId",
          "type": "uint256"
        },
        {
          "indexed": true,
          "internalType": "uint256",
          "name": "batchId",
          "type": "uint256"
        },
        {
          "indexed": true,
          "internalType": "address",
          "name": "issuer",
          "type": "address"
        },
        {
          "indexed": false,
          "internalType": "string",
          "name": "ipfsHash",
          "type": "string"
        },
        {
          "indexed": false,
          "internalType": "uint256",
          "name": "expiryDate",
          "type": "uint256"
        },
        {
          "indexed": false,
          "internalType": "uint256",
          "name": "timestamp",
          "type": "uint256"
        }
      ],
      "name": "CertificateRegistered",
      "type": "event"
    },
    {
      "inputs": [],
      "name": "admin",
      "outputs": [
        {
          "internalType": "address",
          "name": "",
          "type": "address"
        }
      ],
      "stateMutability": "view",
      "type": "function"
    },
    {
      "inputs": [
        {
          "internalType": "address",
          "name": "_user",
          "type": "address"
        },
        {
          "internalType": "enum SeedChain.Role",
          "name": "_role",
          "type": "uint8"
        }
      ],
      "name": "assignRole",
      "outputs": [],
      "stateMutability": "nonpayable",
      "type": "function"
    },
    {
      "inputs": [
        {
          "internalType": "uint256",
          "name": "",
          "type": "uint256"
        }
      ],
      "name": "batchCertificate",
      "outputs": [
        {
          "internalType": "uint256",
          "name": "",
          "type": "uint256"
        }
      ],
      "stateMutability": "view",
      "type": "function"
    },
    {
      "inputs": [
        {
          "internalType": "uint256",
          "name": "",
          "type": "uint256"
        },
        {
          "internalType": "uint256",
          "name": "",
          "type": "uint256"
        }
      ],
      "name": "batchChildren",
      "outputs": [
        {
          "internalType": "uint256",
          "name": "",
          "type": "uint256"
        }
      ],
      "stateMutability": "view",
      "type": "function"
    },
    {
      "inputs": [
        {
          "internalType": "uint256",
          "name": "",
          "type": "uint256"
        }
      ],
      "name": "batches",
      "outputs": [
        {
          "internalType": "uint256",
          "name": "batchId",
          "type": "uint256"
        },
        {
          "internalType": "string",
          "name": "cropType",
          "type": "string"
        },
        {
          "internalType": "string",
          "name": "seedVariety",
          "type": "string"
        },
        {
          "internalType": "uint256",
          "name": "quantity",
          "type": "uint256"
        },
        {
          "internalType": "uint256",
          "name": "expiryDate",
          "type": "uint256"
        },
        {
          "internalType": "string",
          "name": "ipfsHash",
          "type": "string"
        },
        {
          "internalType": "string",
          "name": "certIPFSHash",
          "type": "string"
        },
        {
          "internalType": "address",
          "name": "ownerAddress",
          "type": "address"
        },
        {
          "internalType": "uint256",
          "name": "parentBatchId",
          "type": "uint256"
        },
        {
          "internalType": "enum SeedChain.BatchStatus",
          "name": "status",
          "type": "uint8"
        },
        {
          "internalType": "uint256",
          "name": "createdAt",
          "type": "uint256"
        }
      ],
      "stateMutability": "view",
      "type": "function"
    },
    {
      "inputs": [
        {
          "internalType": "uint256",
          "name": "",
          "type": "uint256"
        }
      ],
      "name": "certificates",
      "outputs": [
        {
          "internalType": "uint256",
          "name": "certId",
          "type": "uint256"
        },
        {
          "internalType": "uint256",
          "name": "batchId",
          "type": "uint256"
        },
        {
          "internalType": "address",
          "name": "issuerAddress",
          "type": "address"
        },
        {
          "internalType": "string",
          "name": "ipfsHash",
          "type": "string"
        },
        {
          "internalType": "bytes",
          "name": "digitalSignature",
          "type": "bytes"
        },
        {
          "internalType": "uint256",
          "name": "issuedAt",
          "type": "uint256"
        },
        {
          "internalType": "uint256",
          "name": "expiryDate",
          "type": "uint256"
        },
        {
          "internalType": "bool",
          "name": "isValid",
          "type": "bool"
        }
      ],
      "stateMutability": "view",
      "type": "function"
    },
    {
      "inputs": [
        {
          "internalType": "string",
          "name": "_cropType",
          "type": "string"
        },
        {
          "internalType": "string",
          "name": "_seedVariety",
          "type": "string"
        },
        {
          "internalType": "uint256",
          "name": "_quantity",
          "type": "uint256"
        },
        {
          "internalType": "uint256",
          "name": "_expiryDate",
          "type": "uint256"
        },
        {
          "internalType": "string",
          "name": "_ipfsHash",
          "type": "string"
        }
      ],
      "name": "createBatch",
      "outputs": [
        {
          "internalType": "uint256",
          "name": "",
          "type": "uint256"
        }
      ],
      "stateMutability": "nonpayable",
      "type": "function"
    },
    {
      "inputs": [
        {
          "internalType": "uint256",
          "name": "_batchId",
          "type": "uint256"
        }
      ],
      "name": "getBatch",
      "outputs": [
        {
          "components": [
            {
              "internalType": "uint256",
              "name": "batchId",
              "type": "uint256"
            },
            {
              "internalType": "string",
              "name": "cropType",
              "type": "string"
            },
            {
              "internalType": "string",
              "name": "seedVariety",
              "type": "string"
            },
            {
              "internalType": "uint256",
              "name": "quantity",
              "type": "uint256"
            },
            {
              "internalType": "uint256",
              "name": "expiryDate",
              "type": "uint256"
            },
            {
              "internalType": "string",
              "name": "ipfsHash",
              "type": "string"
            },
            {
              "internalType": "string",
              "name": "certIPFSHash",
              "type": "string"
            },
            {
              "internalType": "address",
              "name": "ownerAddress",
              "type": "address"
            },
            {
              "internalType": "uint256",
              "name": "parentBatchId",
              "type": "uint256"
            },
            {
              "internalType": "enum SeedChain.BatchStatus",
              "name": "status",
              "type": "uint8"
            },
            {
              "internalType": "uint256",
              "name": "createdAt",
              "type": "uint256"
            }
          ],
          "internalType": "struct SeedChain.SeedBatch",
          "name": "",
          "type": "tuple"
        }
      ],
      "stateMutability": "view",
      "type": "function"
    },
    {
      "inputs": [],
      "name": "getBatchCount",
      "outputs": [
        {
          "internalType": "uint256",
          "name": "",
          "type": "uint256"
        }
      ],
      "stateMutability": "view",
      "type": "function"
    },
    {
      "inputs": [
        {
          "internalType": "uint256",
          "name": "_certId",
          "type": "uint256"
        }
      ],
      "name": "getCertificate",
      "outputs": [
        {
          "components": [
            {
              "internalType": "uint256",
              "name": "certId",
              "type": "uint256"
            },
            {
              "internalType": "uint256",
              "name": "batchId",
              "type": "uint256"
            },
            {
              "internalType": "address",
              "name": "issuerAddress",
              "type": "address"
            },
            {
              "internalType": "string",
              "name": "ipfsHash",
              "type": "string"
            },
            {
              "internalType": "bytes",
              "name": "digitalSignature",
              "type": "bytes"
            },
            {
              "internalType": "uint256",
              "name": "issuedAt",
              "type": "uint256"
            },
            {
              "internalType": "uint256",
              "name": "expiryDate",
              "type": "uint256"
            },
            {
              "internalType": "bool",
              "name": "isValid",
              "type": "bool"
            }
          ],
          "internalType": "struct SeedChain.Certificate",
          "name": "",
          "type": "tuple"
        }
      ],
      "stateMutability": "view",
      "type": "function"
    },
    {
      "inputs": [
        {
          "internalType": "uint256",
          "name": "_batchId",
          "type": "uint256"
        }
      ],
      "name": "getCertificateByBatch",
      "outputs": [
        {
          "components": [
            {
              "internalType": "uint256",
              "name": "certId",
              "type": "uint256"
            },
            {
              "internalType": "uint256",
              "name": "batchId",
              "type": "uint256"
            },
            {
              "internalType": "address",
              "name": "issuerAddress",
              "type": "address"
            },
            {
              "internalType": "string",
              "name": "ipfsHash",
              "type": "string"
            },
            {
              "internalType": "bytes",
              "name": "digitalSignature",
              "type": "bytes"
            },
            {
              "internalType": "uint256",
              "name": "issuedAt",
              "type": "uint256"
            },
            {
              "internalType": "uint256",
              "name": "expiryDate",
              "type": "uint256"
            },
            {
              "internalType": "bool",
              "name": "isValid",
              "type": "bool"
            }
          ],
          "internalType": "struct SeedChain.Certificate",
          "name": "",
          "type": "tuple"
        }
      ],
      "stateMutability": "view",
      "type": "function"
    },
    {
      "inputs": [],
      "name": "getCertificateCount",
      "outputs": [
        {
          "internalType": "uint256",
          "name": "",
          "type": "uint256"
        }
      ],
      "stateMutability": "view",
      "type": "function"
    },
    {
      "inputs": [
        {
          "internalType": "uint256",
          "name": "_batchId",
          "type": "uint256"
        }
      ],
      "name": "getChildBatches",
      "outputs": [
        {
          "internalType": "uint256[]",
          "name": "",
          "type": "uint256[]"
        }
      ],
      "stateMutability": "view",
      "type": "function"
    },
    {
      "inputs": [
        {
          "internalType": "address",
          "name": "_user",
          "type": "address"
        }
      ],
      "name": "getRole",
      "outputs": [
        {
          "internalType": "enum SeedChain.Role",
          "name": "",
          "type": "uint8"
        }
      ],
      "stateMutability": "view",
      "type": "function"
    },
    {
      "inputs": [
        {
          "internalType": "uint256",
          "name": "_batchId",
          "type": "uint256"
        },
        {
          "internalType": "string",
          "name": "_ipfsHash",
          "type": "string"
        },
        {
          "internalType": "bytes",
          "name": "_digitalSignature",
          "type": "bytes"
        },
        {
          "internalType": "uint256",
          "name": "_expiryDate",
          "type": "uint256"
        }
      ],
      "name": "registerCertificate",
      "outputs": [
        {
          "internalType": "uint256",
          "name": "",
          "type": "uint256"
        }
      ],
      "stateMutability": "nonpayable",
      "type": "function"
    },
    {
      "inputs": [
        {
          "internalType": "uint256",
          "name": "_certId",
          "type": "uint256"
        }
      ],
      "name": "revokeCertificate",
      "outputs": [],
      "stateMutability": "nonpayable",
      "type": "function"
    },
    {
      "inputs": [
        {
          "internalType": "address",
          "name": "",
          "type": "address"
        }
      ],
      "name": "roles",
      "outputs": [
        {
          "internalType": "enum SeedChain.Role",
          "name": "",
          "type": "uint8"
        }
      ],
      "stateMutability": "view",
      "type": "function"
    },
    {
      "inputs": [
        {
          "internalType": "uint256",
          "name": "_batchId",
          "type": "uint256"
        },
        {
          "internalType": "uint256",
          "name": "_splitQuantity",
          "type": "uint256"
        },
        {
          "internalType": "string",
          "name": "_newIpfsHash",
          "type": "string"
        }
      ],
      "name": "splitBatch",
      "outputs": [
        {
          "internalType": "uint256",
          "name": "",
          "type": "uint256"
        }
      ],
      "stateMutability": "nonpayable",
      "type": "function"
    },
    {
      "inputs": [
        {
          "internalType": "uint256",
          "name": "_batchId",
          "type": "uint256"
        },
        {
          "internalType": "address",
          "name": "_newOwner",
          "type": "address"
        }
      ],
      "name": "transferBatch",
      "outputs": [],
      "stateMutability": "nonpayable",
      "type": "function"
    },
    {
      "inputs": [
        {
          "internalType": "uint256",
          "name": "_certId",
          "type": "uint256"
        }
      ],
      "name": "verifyCertificate",
      "outputs": [
        {
          "internalType": "bool",
          "name": "isValid",
          "type": "bool"
        },
        {
          "internalType": "bool",
          "name": "isExpired",
          "type": "bool"
        },
        {
          "internalType": "address",
          "name": "issuer",
          "type": "address"
        },
        {
          "internalType": "uint256",
          "name": "batchId",
          "type": "uint256"
        },
        {
          "internalType": "string",
          "name": "ipfsHash",
          "type": "string"
        },
        {
          "internalType": "bytes",
          "name": "signature",
          "type": "bytes"
        }
      ],
      "stateMutability": "view",
      "type": "function"
    }
  ],
  "bytecode": "0x608060405234801561001057600080fd5b5060078054336001600160a01b031990911681179091556000908152600660205260409020805460ff19166001179055612a928061004f6000396000f3fe608060405234801561001057600080fd5b506004361061012c5760003560e01c80638ad82fe5116100ad578063d01d091311610071578063d01d0913146102eb578063d177d07f146102fe578063e307cb1614610311578063efff8afc14610324578063f851a4401461034457600080fd5b80638ad82fe5146102635780639937464214610283578063a8fabfa5146102a6578063b32c4d8d146102ae578063b663956c146102d857600080fd5b80635ac44282116100f45780635ac44282146101ee578063621f2b0e1461020e578063630a195b14610221578063663b3e22146102345780638809f7271461025b57600080fd5b806306f5497e146101315780631692a9421461014657806329300d5914610174578063442767331461019557806351640fee146101ce575b600080fd5b61014461013f366004612142565b61036f565b005b610159610154366004612142565b610430565b60405161016b969594939291906121a1565b60405180910390f35b6101876101823660046122aa565b61063b565b60405190815260200161016b565b6101c16101a3366004612362565b6001600160a01b031660009081526006602052604090205460ff1690565b60405161016b9190612393565b6101e16101dc366004612142565b610977565b60405161016b91906123ad565b6102016101fc366004612142565b610b42565b60405161016b9190612456565b61014461021c36600461253d565b610e61565b61014461022f366004612569565b6110bf565b610247610242366004612142565b611144565b60405161016b9897969594939291906125a4565b600154610187565b610187610271366004612142565b60056020526000908152604090205481565b6101c1610291366004612362565b60066020526000908152604090205460ff1681565b600054610187565b6102c16102bc366004612142565b6112a7565b60405161016b9b9a9998979695949392919061260d565b6101876102e63660046126af565b61152b565b6101e16102f9366004612142565b6117c9565b61018761030c366004612738565b6119f3565b61018761031f366004612788565b611fbb565b610337610332366004612142565b611fec565b60405161016b91906127aa565b600754610357906001600160a01b031681565b6040516001600160a01b03909116815260200161016b565b60008111801561038157506001548111155b6103a65760405162461bcd60e51b815260040161039d906127ee565b60405180910390fd5b6000818152600360205260409020600201546001600160a01b03163314806103d857506007546001600160a01b031633145b6104155760405162461bcd60e51b815260206004820152600e60248201526d139bdd08185d5d1a1bdc9a5e995960921b604482015260640161039d565b6000908152600360205260409020600701805460ff19169055565b60008060008060608060008711801561044b57506001548711155b6104675760405162461bcd60e51b815260040161039d906127ee565b60008781526003602081815260408084208151610100810183528154815260018201549381019390935260028101546001600160a01b03169183019190915291820180549192916060840191906104bd90612825565b80601f01602080910402602001604051908101604052809291908181526020018280546104e990612825565b80156105365780601f1061050b57610100808354040283529160200191610536565b820191906000526020600020905b81548152906001019060200180831161051957829003601f168201915b5050505050815260200160048201805461054f90612825565b80601f016020809104026020016040519081016040528092919081815260200182805461057b90612825565b80156105c85780601f1061059d576101008083540402835291602001916105c8565b820191906000526020600020905b8154815290600101906020018083116105ab57829003601f168201915b5050509183525050600582015460208201526006820154604082015260079091015460ff16151560609091015260c081015160e0820151429091111597509091508015610613575085155b9650806040015194508060200151935080606001519250806080015191505091939550919395565b6000808651116106825760405162461bcd60e51b815260206004820152601260248201527110dc9bdc081d1e5c19481c995c5d5a5c995960721b604482015260640161039d565b60008551116106cb5760405162461bcd60e51b815260206004820152601560248201527414d95959081d985c9a595d1e481c995c5d5a5c9959605a1b604482015260640161039d565b6000841161071b5760405162461bcd60e51b815260206004820152601960248201527f5175616e74697479206d75737420626520706f73697469766500000000000000604482015260640161039d565b42831161076a5760405162461bcd60e51b815260206004820152601c60248201527f457870697279206d75737420626520696e207468652066757475726500000000604482015260640161039d565b60008251116107b05760405162461bcd60e51b815260206004820152601260248201527112541194c81a185cda081c995c5d5a5c995960721b604482015260640161039d565b6000805490806107bf8361286f565b9190505550600080549050604051806101600160405280828152602001888152602001878152602001868152602001858152602001848152602001604051806020016040528060008152508152602001336001600160a01b0316815260200160008152602001600060028111156108385761083861237d565b815242602091820152600083815260028252604090208251815590820151600182019061086590826128d7565b506040820151600282019061087a90826128d7565b50606082015160038201556080820151600482015560a082015160058201906108a390826128d7565b5060c082015160068201906108b890826128d7565b5060e08201516007820180546001600160a01b0319166001600160a01b03909216919091179055610100820151600882015561012082015160098201805460ff1916600183600281111561090e5761090e61237d565b021790555061014082015181600a0155905050336001600160a01b0316817f55f72efaf22ee5bd6498592688e0d6e2be429a151f5f6c0131d98934e533102489898989894260405161096596959493929190612997565b60405180910390a39695505050505050565b61097f61207e565b60008211801561099157506001548211155b6109ad5760405162461bcd60e51b815260040161039d906127ee565b6000828152600360208181526040928390208351610100810185528154815260018201549281019290925260028101546001600160a01b0316938201939093529082018054919291606084019190610a0490612825565b80601f0160208091040260200160405190810160405280929190818152602001828054610a3090612825565b8015610a7d5780601f10610a5257610100808354040283529160200191610a7d565b820191906000526020600020905b815481529060010190602001808311610a6057829003601f168201915b50505050508152602001600482018054610a9690612825565b80601f0160208091040260200160405190810160405280929190818152602001828054610ac290612825565b8015610b0f5780601f10610ae457610100808354040283529160200191610b0f565b820191906000526020600020905b815481529060010190602001808311610af257829003601f168201915b5050509183525050600582015460208201526006820154604082015260079091015460ff16151560609091015292915050565b610b4a6120ce565b81600081118015610b5d57506000548111155b610b795760405162461bcd60e51b815260040161039d906129f0565b600260008481526020019081526020016000206040518061016001604052908160008201548152602001600182018054610bb290612825565b80601f0160208091040260200160405190810160405280929190818152602001828054610bde90612825565b8015610c2b5780601f10610c0057610100808354040283529160200191610c2b565b820191906000526020600020905b815481529060010190602001808311610c0e57829003601f168201915b50505050508152602001600282018054610c4490612825565b80601f0160208091040260200160405190810160405280929190818152602001828054610c7090612825565b8015610cbd5780601f10610c9257610100808354040283529160200191610cbd565b820191906000526020600020905b815481529060010190602001808311610ca057829003601f168201915b505050505081526020016003820154815260200160048201548152602001600582018054610cea90612825565b80601f0160208091040260200160405190810160405280929190818152602001828054610d1690612825565b8015610d635780601f10610d3857610100808354040283529160200191610d63565b820191906000526020600020905b815481529060010190602001808311610d4657829003601f168201915b50505050508152602001600682018054610d7c90612825565b80601f0160208091040260200160405190810160405280929190818152602001828054610da890612825565b8015610df55780601f10610dca57610100808354040283529160200191610df5565b820191906000526020600020905b815481529060010190602001808311610dd857829003601f168201915b505050918352505060078201546001600160a01b0316602082015260088201546040820152600982015460609091019060ff166002811115610e3957610e3961237d565b6002811115610e4a57610e4a61237d565b8152602001600a8201548152505091505b50919050565b81600081118015610e7457506000548111155b610e905760405162461bcd60e51b815260040161039d906129f0565b60008381526002602052604090206007015483906001600160a01b03163314610eed5760405162461bcd60e51b815260206004820152600f60248201526e2737ba103130ba31b41037bbb732b960891b604482015260640161039d565b836000808281526002602081905260409091206009015460ff1690811115610f1757610f1761237d565b14610f575760405162461bcd60e51b815260206004820152601060248201526f4261746368206e6f742061637469766560801b604482015260640161039d565b6000818152600260205260409020600401544210610fa75760405162461bcd60e51b815260206004820152600d60248201526c10985d18da08195e1c1a5c9959609a1b604482015260640161039d565b6001600160a01b038416610fef5760405162461bcd60e51b815260206004820152600f60248201526e496e76616c6964206164647265737360881b604482015260640161039d565b336001600160a01b038516036110475760405162461bcd60e51b815260206004820152601760248201527f43616e6e6f74207472616e7366657220746f2073656c66000000000000000000604482015260640161039d565b6000858152600260205260409081902060070180546001600160a01b038781166001600160a01b0319831681179093559251921691829088907fb4a1185473b458886a3d3056f172372438629a6f4fbfc04ad2dad0956b7b6926906110af9042815260200190565b60405180910390a4505050505050565b6007546001600160a01b031633146111065760405162461bcd60e51b815260206004820152600a60248201526927b7363c9030b236b4b760b11b604482015260640161039d565b6001600160a01b0382166000908152600660205260409020805482919060ff1916600183600481111561113b5761113b61237d565b02179055505050565b60036020819052600091825260409091208054600182015460028301549383018054929491936001600160a01b039092169261117f90612825565b80601f01602080910402602001604051908101604052809291908181526020018280546111ab90612825565b80156111f85780601f106111cd576101008083540402835291602001916111f8565b820191906000526020600020905b8154815290600101906020018083116111db57829003601f168201915b50505050509080600401805461120d90612825565b80601f016020809104026020016040519081016040528092919081815260200182805461123990612825565b80156112865780601f1061125b57610100808354040283529160200191611286565b820191906000526020600020905b81548152906001019060200180831161126957829003601f168201915b50505050600583015460068401546007909401549293909290915060ff1688565b600260205260009081526040902080546001820180549192916112c990612825565b80601f01602080910402602001604051908101604052809291908181526020018280546112f590612825565b80156113425780601f1061131757610100808354040283529160200191611342565b820191906000526020600020905b81548152906001019060200180831161132557829003601f168201915b50505050509080600201805461135790612825565b80601f016020809104026020016040519081016040528092919081815260200182805461138390612825565b80156113d05780601f106113a5576101008083540402835291602001916113d0565b820191906000526020600020905b8154815290600101906020018083116113b357829003601f168201915b5050505050908060030154908060040154908060050180546113f190612825565b80601f016020809104026020016040519081016040528092919081815260200182805461141d90612825565b801561146a5780601f1061143f5761010080835404028352916020019161146a565b820191906000526020600020905b81548152906001019060200180831161144d57829003601f168201915b50505050509080600601805461147f90612825565b80601f01602080910402602001604051908101604052809291908181526020018280546114ab90612825565b80156114f85780601f106114cd576101008083540402835291602001916114f8565b820191906000526020600020905b8154815290600101906020018083116114db57829003601f168201915b505050600784015460088501546009860154600a9096015494956001600160a01b039092169490935060ff90911691508b565b60008460008111801561154057506000548111155b61155c5760405162461bcd60e51b815260040161039d906129f0565b60008551116115ad5760405162461bcd60e51b815260206004820152601e60248201527f4365727469666963617465204950465320686173682072657175697265640000604482015260640161039d565b60008451116115fe5760405162461bcd60e51b815260206004820152601a60248201527f4469676974616c207369676e6174757265207265717569726564000000000000604482015260640161039d565b42831161165e5760405162461bcd60e51b815260206004820152602860248201527f436572746966696361746520657870697279206d75737420626520696e207468604482015267652066757475726560c01b606482015260840161039d565b6001805490600061166e8361286f565b909155505060018054604080516101008101825282815260208082018b815233838501908152606084018c8152608085018c90524260a086015260c085018b905260e085018890526000878152600394859052959095208451815591519682019690965594516002860180546001600160a01b0319166001600160a01b03909216919091179055915192939092909182019061170a90826128d7565b506080820151600482019061171f90826128d7565b5060a0820151600582015560c082015160068083019190915560e0909201516007909101805460ff191691151591909117905560008881526002602052604090200161176b87826128d7565b5060008781526005602052604090819020829055513390889083907fc6ebc8a15009d4a929ded3d13ca6b2566fd88fcea335c540f8aa027bba21ad12906117b7908b908a904290612a1e565b60405180910390a49695505050505050565b6117d161207e565b816000811180156117e457506000548111155b6118005760405162461bcd60e51b815260040161039d906129f0565b6000838152600560205260409020548061185c5760405162461bcd60e51b815260206004820152601d60248201527f4e6f20636572746966696361746520666f722074686973206261746368000000604482015260640161039d565b6000818152600360208181526040928390208351610100810185528154815260018201549281019290925260028101546001600160a01b03169382019390935290820180549192916060840191906118b390612825565b80601f01602080910402602001604051908101604052809291908181526020018280546118df90612825565b801561192c5780601f106119015761010080835404028352916020019161192c565b820191906000526020600020905b81548152906001019060200180831161190f57829003601f168201915b5050505050815260200160048201805461194590612825565b80601f016020809104026020016040519081016040528092919081815260200182805461197190612825565b80156119be5780601f10611993576101008083540402835291602001916119be565b820191906000526020600020905b8154815290600101906020018083116119a157829003601f168201915b5050509183525050600582015460208201526006820154604082015260079091015460ff161515606090910152949350505050565b600083600081118015611a0857506000548111155b611a245760405162461bcd60e51b815260040161039d906129f0565b60008581526002602052604090206007015485906001600160a01b03163314611a815760405162461bcd60e51b815260206004820152600f60248201526e2737ba103130ba31b41037bbb732b960891b604482015260640161039d565b856000808281526002602081905260409091206009015460ff1690811115611aab57611aab61237d565b14611aeb5760405162461bcd60e51b815260206004820152601060248201526f4261746368206e6f742061637469766560801b604482015260640161039d565b6000818152600260205260409020600401544210611b3b5760405162461bcd60e51b815260206004820152600d60248201526c10985d18da08195e1c1a5c9959609a1b604482015260640161039d565b600087815260026020526040902086611b965760405162461bcd60e51b815260206004820152601f60248201527f53706c6974207175616e74697479206d75737420626520706f73697469766500604482015260640161039d565b80600301548710611bf45760405162461bcd60e51b815260206004820152602260248201527f53706c697420717479206d757374206265206c657373207468616e20706172656044820152611b9d60f21b606482015260840161039d565b6000865111611c3a5760405162461bcd60e51b815260206004820152601260248201527112541194c81a185cda081c995c5d5a5c995960721b604482015260640161039d565b86816003016000828254611c4e9190612a43565b9091555050600080549080611c628361286f565b9190505550600080549050604051806101600160405280828152602001836001018054611c8e90612825565b80601f0160208091040260200160405190810160405280929190818152602001828054611cba90612825565b8015611d075780601f10611cdc57610100808354040283529160200191611d07565b820191906000526020600020905b815481529060010190602001808311611cea57829003601f168201915b50505050508152602001836002018054611d2090612825565b80601f0160208091040260200160405190810160405280929190818152602001828054611d4c90612825565b8015611d995780601f10611d6e57610100808354040283529160200191611d99565b820191906000526020600020905b815481529060010190602001808311611d7c57829003601f168201915b5050505050815260200189815260200183600401548152602001888152602001836006018054611dc890612825565b80601f0160208091040260200160405190810160405280929190818152602001828054611df490612825565b8015611e415780601f10611e1657610100808354040283529160200191611e41565b820191906000526020600020905b815481529060010190602001808311611e2457829003601f168201915b5050509183525050336020820152604081018b905260600160008152426020918201526000838152600282526040902082518155908201516001820190611e8890826128d7565b5060408201516002820190611e9d90826128d7565b50606082015160038201556080820151600482015560a08201516005820190611ec690826128d7565b5060c08201516006820190611edb90826128d7565b5060e08201516007820180546001600160a01b0319166001600160a01b03909216919091179055610100820151600882015561012082015160098201805460ff19166001836002811115611f3157611f3161237d565b02179055506101409190910151600a9091015560008981526004602090815260408083208054600181018255908452919092200182905551339082908b907f04c93e97545052e87cd3c09104a8fd624159dd81fcbead0e48ac176d43da9fc490611fa7908d904290918252602082015260400190565b60405180910390a498975050505050505050565b60046020528160005260406000208181548110611fd757600080fd5b90600052602060002001600091509150505481565b60608160008111801561200157506000548111155b61201d5760405162461bcd60e51b815260040161039d906129f0565b6000838152600460209081526040918290208054835181840281018401909452808452909183018282801561207157602002820191906000526020600020905b81548152602001906001019080831161205d575b5050505050915050919050565b604051806101000160405280600081526020016000815260200160006001600160a01b03168152602001606081526020016060815260200160008152602001600081526020016000151581525090565b6040518061016001604052806000815260200160608152602001606081526020016000815260200160008152602001606081526020016060815260200160006001600160a01b0316815260200160008152602001600060028111156121355761213561237d565b8152602001600081525090565b60006020828403121561215457600080fd5b5035919050565b6000815180845260005b8181101561218157602081850181015186830182015201612165565b506000602082860101526020601f19601f83011685010191505092915050565b8615158152851515602082015260018060a01b038516604082015283606082015260c0608082015260006121d860c083018561215b565b82810360a08401526121ea818561215b565b9998505050505050505050565b634e487b7160e01b600052604160045260246000fd5b600067ffffffffffffffff80841115612228576122286121f7565b604051601f8501601f19908116603f01168101908282118183101715612250576122506121f7565b8160405280935085815286868601111561226957600080fd5b858560208301376000602087830101525050509392505050565b600082601f83011261229457600080fd5b6122a38383356020850161220d565b9392505050565b600080600080600060a086880312156122c257600080fd5b853567ffffffffffffffff808211156122da57600080fd5b6122e689838a01612283565b965060208801359150808211156122fc57600080fd5b61230889838a01612283565b95506040880135945060608801359350608088013591508082111561232c57600080fd5b5061233988828901612283565b9150509295509295909350565b80356001600160a01b038116811461235d57600080fd5b919050565b60006020828403121561237457600080fd5b6122a382612346565b634e487b7160e01b600052602160045260246000fd5b60208101600583106123a7576123a761237d565b91905290565b60208152815160208201526020820151604082015260018060a01b036040830151166060820152600060608301516101008060808501526123f261012085018361215b565b91506080850151601f198584030160a086015261240f838261215b565b92505060a085015160c085015260c085015160e085015260e08501516124388286018215159052565b5090949350505050565b600381106124525761245261237d565b9052565b60208152815160208201526000602083015161016080604085015261247f61018085018361215b565b91506040850151601f198086850301606087015261249d848361215b565b935060608701516080870152608087015160a087015260a08701519150808685030160c08701526124ce848361215b565b935060c08701519150808685030160e0870152506124ec838261215b565b92505060e085015161010061250b818701836001600160a01b03169052565b86015161012086810191909152860151905061014061252c81870183612442565b959095015193019290925250919050565b6000806040838503121561255057600080fd5b8235915061256060208401612346565b90509250929050565b6000806040838503121561257c57600080fd5b61258583612346565b915060208301356005811061259957600080fd5b809150509250929050565b888152602081018890526001600160a01b0387166040820152610100606082018190526000906125d68382018961215b565b905082810360808401526125ea818861215b565b60a0840196909652505060c0810192909252151560e09091015295945050505050565b60006101608d83528060208401526126278184018e61215b565b9050828103604084015261263b818d61215b565b90508a606084015289608084015282810360a084015261265b818a61215b565b905082810360c084015261266f818961215b565b6001600160a01b03881660e0850152610100840187905291506126989050610120830185612442565b826101408301529c9b505050505050505050505050565b600080600080608085870312156126c557600080fd5b84359350602085013567ffffffffffffffff808211156126e457600080fd5b6126f088838901612283565b9450604087013591508082111561270657600080fd5b508501601f8101871361271857600080fd5b6127278782356020840161220d565b949793965093946060013593505050565b60008060006060848603121561274d57600080fd5b8335925060208401359150604084013567ffffffffffffffff81111561277257600080fd5b61277e86828701612283565b9150509250925092565b6000806040838503121561279b57600080fd5b50508035926020909101359150565b6020808252825182820181905260009190848201906040850190845b818110156127e2578351835292840192918401916001016127c6565b50909695505050505050565b6020808252601a908201527f436572746966696361746520646f6573206e6f74206578697374000000000000604082015260600190565b600181811c9082168061283957607f821691505b602082108103610e5b57634e487b7160e01b600052602260045260246000fd5b634e487b7160e01b600052601160045260246000fd5b60006001820161288157612881612859565b5060010190565b601f8211156128d257600081815260208120601f850160051c810160208610156128af5750805b601f850160051c820191505b818110156128ce578281556001016128bb565b5050505b505050565b815167ffffffffffffffff8111156128f1576128f16121f7565b612905816128ff8454612825565b84612888565b602080601f83116001811461293a57600084156129225750858301515b600019600386901b1c1916600185901b1785556128ce565b600085815260208120601f198616915b828110156129695788860151825594840194600190910190840161294a565b50858210156129875787850151600019600388901b60f8161c191681555b5050505050600190811b01905550565b60c0815260006129aa60c083018961215b565b82810360208401526129bc818961215b565b905086604084015285606084015282810360808401526129dc818661215b565b9150508260a0830152979650505050505050565b60208082526014908201527310985d18da08191bd95cc81b9bdd08195e1a5cdd60621b604082015260600190565b606081526000612a31606083018661215b565b60208301949094525060400152919050565b81810381811115612a5657612a56612859565b9291505056fea26469706673582212201daa0dd47f8484cea7890933ef28e27e1bb6108559b3fc81a7b3952a4269889164736f6c63430008130033",
  "linkReferences": {},
  "deployedLinkReferences": {}
}